:020000040800F2
:1000000000500020F50200084503000845030008E1
:1000100045030008450300084503000800000000F0
:100020000000000000000000000000004503000880
:100030000000000000000000450300084503000820
:100040004503000845030008450300084503000870
:100050004503000845030008450300084503000860
:100060004503000845030008450300084503000850
:100070004503000845030008450300084503000840
:100080004503000845030008450300084503000830
:100090004503000845030008450300084503000820
:1000A0004503000845030008450300084503000810
:1000B0004503000845030008450300084503000800
:1000C00045030008450300084503000845030008F0
:1000D00045030008450300084503000845030008E0
:1000E0004503000845030008000000004503000820
:1000F00045030008450300084503000845030008C0
:1001000045030008450300084503000845030008AF
:10011000450300084503000845030008450300089F
:10012000450300084503000845030008450300088F
:1001300010B5054C237833B9044B13B10448AFF321
:1001400000800123237010BD040000200000000087
:100150004803000808B5034B1BB103490348AFF33C
:10016000008008BD000000000800002048030008CF
:1001700070B500260C4D0D4C641BA410A64209D18D
:1001800000F0E2F800260A4D0A4C641BA410A642B7
:1001900005D170BD55F8043B98470136EEE755F898
:1001A000043B98470136F2E760030008600300084B
:1001B000600300086803000870477047024B13B1E2
:1001C000024800F005B8704700000000DD0100089B
:1001D000002301461A46184600F014B838B5074DFA
:1001E000074C641BA4101CB9BDE8384000F0B2B83D
:1001F000013C55F824309847F5E700BF6803000834
:100200006C0300082DE9F047DFF86CA00646DAF829
:10021000000098460F469146FFF7CEFF174B1C682B
:100220000CB9174C1C606568DAF800001F2D05DD5D
:10023000FFF7C3FF4FF0FF30BDE8F0879EB101220A
:1002400004EB8501C1F88890D4F88831AA401343A3
:10025000C4F88831022EC1F8088102BFD4F88C316D
:100260001343C4F88C316B1C0235636044F825706D
:10027000FFF7A3FF0020DFE700000020240000209C
:10028000280000200022824210D282B009E0019BA7
:1002900001330193019BB3F5FA6FF8D30132824227
:1002A00002D200230193F5E702B0704770470000C7
:1002B00008B50E4A936943F0100393610C4B5A68DA
:1002C00022F470025A605A6842F400125A60084CD4
:1002D0004FF0005323614FF4FA70FFF7D3FF4FF450
:1002E000005323613220FFF7CDFFF0E700100240FA
:1002F000001001400D488546AFF300800C480D49C1
:100300000D4A002302E0D458C4500433C4188C4270
:10031000F9D30A4A0A4C002301E013600432A242D6
:10032000FBD3FFF725FFFFF7C3FFFEE700500020D8
:1003300000000020040000206C03000804000020DE
:10034000B8010020FEE70000F8B500BFF8BC08BC0B
:100350009E467047F8B500BFF8BC08BC9E46704783
:08036000BD0100085501000871
:040368003101000857
:04036C00200000204D
:04000005080002F5F8
:00000001FF
